{
  "address": "0xe7f1725E7734CE288F8367e1Bb143E90bb3F0512",
  "abi": [
    {
      "inputs": [
        {
          "internalType": "address",
          "name": "priceFeedAddress",
          "type": "address"
        }
      ],
      "stateMutability": "nonpayable",
      "type": "constructor"
    },
    {
      "inputs": [
        {
          "internalType": "address",
          "name": "",
          "type": "address"
        }
      ],
      "name": "addressToAmountFunded",
      "outputs": [
        {
          "internalType": "uint256",
          "name": "",
          "type": "uint256"
        }
      ],
      "stateMutability": "view",
      "type": "function"
    },
    {
      "inputs": [],
      "name": "fund",
      "outputs": [],
      "stateMutability": "payable",
      "type": "function"
    },
    {
      "inputs": [
        {
          "internalType": "uint256",
          "name": "",
          "type": "uint256"
        }
      ],
      "name": "funders",
      "outputs": [
        {
          "internalType": "address",
          "name": "",
          "type": "address"
        }
      ],
      "stateMutability": "view",
      "type": "function"
    },
    {
      "inputs": [],
      "name": "owner",
      "outputs": [
        {
          "internalType": "address",
          "name": "",
          "type": "address"
        }
      ],
      "stateMutability": "view",
      "type": "function"
    },
    {
      "inputs": [],
      "name": "priceFeed",
      "outputs": [
        {
          "internalType": "contract AggregatorV3Interface",
          "name": "",
          "type": "address"
        }
      ],
      "stateMutability": "view",
      "type": "function"
    },
    {
      "inputs": [],
      "name": "withdraw",
      "outputs": [],
      "stateMutability": "nonpayable",
      "type": "function"
    }
  ],
  "transactionHash": "0xfe3bce89b99ae4516d91aa09121caa946503f3b70e1e9c308e2b96ae376b9968",
  "args": [
    "0x5FbDB2315678afecb367f032d93F642f64180aa3"
  ],
  "numDeployments": 1,
  "solcInputHash": "46e7713b897f6f2a7fccba51710ebac0",
  "bytecode": "0x60806040526802b5e3af16b18800006000553480156200001e57600080fd5b506040516200112e3803806200112e833981810160405281019062000044919062000137565b33600260006101000a81548173ffffffffffffffffffffffffffffffffffffffff021916908373ffffffffffffffffffffffffffffffffffffffff16021790555080600460006101000a81548173ffffffffffffffffffffffffffffffffffffffff021916908373ffffffffffffffffffffffffffffffffffffffff1602179055505062000169565b600080fd5b600073ffffffffffffffffffffffffffffffffffffffff82169050919050565b6000620000ff82620000d2565b9050919050565b6200011181620000f2565b81146200011d57600080fd5b50565b600081519050620001318162000106565b92915050565b60006020828403121562000150576200014f620000cd565b5b6000620001608482850162000120565b91505092915050565b610fb580620001796000396000f3fe6080604052600436106100555760003560e01c80633ccfd60b1461005a5780633e47d6f314610071578063741bef1a146100ae5780638da5cb5b146100d9578063b60d428814610104578063dc0d3dff1461010e575b600080fd5b34801561006657600080fd5b5061006f61014b565b005b34801561007d57600080fd5b5061009860048036038101906100939190610815565b610458565b6040516100a5919061085b565b60405180910390f35b3480156100ba57600080fd5b506100c3610470565b6040516100d091906108d5565b60405180910390f35b3480156100e557600080fd5b506100ee610496565b6040516100fb91906108ff565b60405180910390f35b61010c6104bc565b005b34801561011a57600080fd5b5061013560048036038101906101309190610946565b6105f0565b60405161014291906108ff565b60405180910390f35b600260009054906101000a900473ffffffffffffffffffffffffffffffffffffffff1673ffffffffffffffffffffffffffffffffffffffff163373ffffffffffffffffffffffffffffffffffffffff16146101db576040517f08c379a00000000000000000000000000000000000000000000000000000000081526004016101d2906109d0565b60405180910390fd5b60005b60018054905081101561028757600060018281548110610201576102006109f0565b5b9060005260206000200160009054906101000a900473ffffffffffffffffffffffffffffffffffffffff1690506000600360008373ffffffffffffffffffffffffffffffffffffffff1673ffffffffffffffffffffffffffffffffffffffff1681526020019081526020016000208190555050808061027f90610a4e565b9150506101de565b50600067ffffffffffffffff8111156102a3576102a2610a97565b5b6040519080825280602002602001820160405280156102d15781602001602082028036833780820191505090505b50600190805190602001906102e792919061070b565b503373ffffffffffffffffffffffffffffffffffffffff166108fc479081150290604051600060405180830381858888f1935050505015801561032e573d6000803e3d6000fd5b5060003373ffffffffffffffffffffffffffffffffffffffff166108fc479081150290604051600060405180830381858888f193505050509050806103a8576040517f08c379a000000000000000000000000000000000000000000000000000000000815260040161039f90610b12565b60405180910390fd5b60003373ffffffffffffffffffffffffffffffffffffffff16476040516103ce90610b63565b60006040518083038185875af1925050503d806000811461040b576040519150601f19603f3d011682016040523d82523d6000602084013e610410565b606091505b5050905080610454576040517f08c379a000000000000000000000000000000000000000000000000000000000815260040161044b90610bc4565b60405180910390fd5b5050565b60036020528060005260406000206000915090505481565b600460009054906101000a900473ffffffffffffffffffffffffffffffffffffffff1681565b600260009054906101000a900473ffffffffffffffffffffffffffffffffffffffff1681565b6000546104f4600460009054906101000a900473ffffffffffffffffffffffffffffffffffffffff163461062f90919063ffffffff16565b1015610535576040517f08c379a000000000000000000000000000000000000000000000000000000000815260040161052c90610c30565b60405180910390fd5b34600360003373ffffffffffffffffffffffffffffffffffffffff1673ffffffffffffffffffffffffffffffffffffffff16815260200190815260200160002060008282546105849190610c50565b925050819055506001339080600181540180825580915050600190039060005260206000200160009091909190916101000a81548173ffffffffffffffffffffffffffffffffffffffff021916908373ffffffffffffffffffffffffffffffffffffffff160217905550565b6001818154811061060057600080fd5b906000526020600020016000915054906101000a900473ffffffffffffffffffffffffffffffffffffffff1681565b60008061063b8361066b565b90506000670de0b6b3a764000085836106549190610ca6565b61065e9190610d2f565b9050809250505092915050565b6000808273ffffffffffffffffffffffffffffffffffffffff1663feaf968c6040518163ffffffff1660e01b815260040160a06040518083038186803b1580156106b457600080fd5b505afa1580156106c8573d6000803e3d6000fd5b505050506040513d601f19601f820116820180604052508101906106ec9190610ded565b5050509150506402540be400816107039190610e68565b915050919050565b828054828255906000526020600020908101928215610784579160200282015b828111156107835782518260006101000a81548173ffffffffffffffffffffffffffffffffffffffff021916908373ffffffffffffffffffffffffffffffffffffffff1602179055509160200191906001019061072b565b5b5090506107919190610795565b5090565b5b808211156107ae576000816000905550600101610796565b5090565b600080fd5b600073ffffffffffffffffffffffffffffffffffffffff82169050919050565b60006107e2826107b7565b9050919050565b6107f2816107d7565b81146107fd57600080fd5b50565b60008135905061080f816107e9565b92915050565b60006020828403121561082b5761082a6107b2565b5b600061083984828501610800565b91505092915050565b6000819050919050565b61085581610842565b82525050565b6000602082019050610870600083018461084c565b92915050565b6000819050919050565b600061089b610896610891846107b7565b610876565b6107b7565b9050919050565b60006108ad82610880565b9050919050565b60006108bf826108a2565b9050919050565b6108cf816108b4565b82525050565b60006020820190506108ea60008301846108c6565b92915050565b6108f9816107d7565b82525050565b600060208201905061091460008301846108f0565b92915050565b61092381610842565b811461092e57600080fd5b50565b6000813590506109408161091a565b92915050565b60006020828403121561095c5761095b6107b2565b5b600061096a84828501610931565b91505092915050565b600082825260208201905092915050565b7f53454e444552204953204e4f54204f574e455200000000000000000000000000600082015250565b60006109ba601383610973565b91506109c582610984565b602082019050919050565b600060208201905081810360008301526109e9816109ad565b9050919050565b7f4e487b7100000000000000000000000000000000000000000000000000000000600052603260045260246000fd5b7f4e487b7100000000000000000000000000000000000000000000000000000000600052601160045260246000fd5b6000610a5982610842565b91507fffffffffffffffffffffffffffffffffffffffffffffffffffffffffffffffff821415610a8c57610a8b610a1f565b5b600182019050919050565b7f4e487b7100000000000000000000000000000000000000000000000000000000600052604160045260246000fd5b7f2053454e44204641494c44000000000000000000000000000000000000000000600082015250565b6000610afc600b83610973565b9150610b0782610ac6565b602082019050919050565b60006020820190508181036000830152610b2b81610aef565b9050919050565b600081905092915050565b50565b6000610b4d600083610b32565b9150610b5882610b3d565b600082019050919050565b6000610b6e82610b40565b9150819050919050565b7f43414c4c204641494c4400000000000000000000000000000000000000000000600082015250565b6000610bae600a83610973565b9150610bb982610b78565b602082019050919050565b60006020820190508181036000830152610bdd81610ba1565b9050919050565b7f446f276e6f742073656e6420656e6f7567680000000000000000000000000000600082015250565b6000610c1a601283610973565b9150610c2582610be4565b602082019050919050565b60006020820190508181036000830152610c4981610c0d565b9050919050565b6000610c5b82610842565b9150610c6683610842565b9250827fffffffffffffffffffffffffffffffffffffffffffffffffffffffffffffffff03821115610c9b57610c9a610a1f565b5b828201905092915050565b6000610cb182610842565b9150610cbc83610842565b9250817fffffffffffffffffffffffffffffffffffffffffffffffffffffffffffffffff0483118215151615610cf557610cf4610a1f565b5b828202905092915050565b7f4e487b7100000000000000000000000000000000000000000000000000000000600052601260045260246000fd5b6000610d3a82610842565b9150610d4583610842565b925082610d5557610d54610d00565b5b828204905092915050565b600069ffffffffffffffffffff82169050919050565b610d7f81610d60565b8114610d8a57600080fd5b50565b600081519050610d9c81610d76565b92915050565b6000819050919050565b610db581610da2565b8114610dc057600080fd5b50565b600081519050610dd281610dac565b92915050565b600081519050610de78161091a565b92915050565b600080600080600060a08688031215610e0957610e086107b2565b5b6000610e1788828901610d8d565b9550506020610e2888828901610dc3565b9450506040610e3988828901610dd8565b9350506060610e4a88828901610dd8565b9250506080610e5b88828901610d8d565b9150509295509295909350565b6000610e7382610da2565b9150610e7e83610da2565b9250827f7fffffffffffffffffffffffffffffffffffffffffffffffffffffffffffffff0482116000841360008413161615610ebd57610ebc610a1f565b5b817f80000000000000000000000000000000000000000000000000000000000000000583126000841260008413161615610efa57610ef9610a1f565b5b827f80000000000000000000000000000000000000000000000000000000000000000582126000841360008412161615610f3757610f36610a1f565b5b827f7fffffffffffffffffffffffffffffffffffffffffffffffffffffffffffffff0582126000841260008412161615610f7457610f73610a1f565b5b82820290509291505056fea264697066735822122081afb6b1af2300bbe3424dd6649877657fdac2507a2115773c36594d8d34e6f564736f6c63430008080033",
  "devdoc": {
    "kind": "dev",
    "methods": {},
    "version": 1
  },
  "userdoc": {
    "kind": "user",
    "methods": {},
    "version": 1
  },
  "storageLayout": {
    "storage": [
      {
        "astId": 56,
        "contract": "contracts/FundMe.sol:FundMe",
        "label": "minimumUSD",
        "offset": 0,
        "slot": "0",
        "type": "t_uint256"
      },
      {
        "astId": 59,
        "contract": "contracts/FundMe.sol:FundMe",
        "label": "funders",
        "offset": 0,
        "slot": "1",
        "type": "t_array(t_address)dyn_storage"
      },
      {
        "astId": 61,
        "contract": "contracts/FundMe.sol:FundMe",
        "label": "owner",
        "offset": 0,
        "slot": "2",
        "type": "t_address"
      },
      {
        "astId": 65,
        "contract": "contracts/FundMe.sol:FundMe",
        "label": "addressToAmountFunded",
        "offset": 0,
        "slot": "3",
        "type": "t_mapping(t_address,t_uint256)"
      },
      {
        "astId": 68,
        "contract": "contracts/FundMe.sol:FundMe",
        "label": "priceFeed",
        "offset": 0,
        "slot": "4",
        "type": "t_contract(AggregatorV3Interface)45"
      }
    ],
    "types": {
      "t_address": {
        "encoding": "inplace",
        "label": "address",
        "numberOfBytes": "20"
      },
      "t_array(t_address)dyn_storage": {
        "base": "t_address",
        "encoding": "dynamic_array",
        "label": "address[]",
        "numberOfBytes": "32"
      },
      "t_contract(AggregatorV3Interface)45": {
        "encoding": "inplace",
        "label": "contract AggregatorV3Interface",
        "numberOfBytes": "20"
      },
      "t_mapping(t_address,t_uint256)": {
        "encoding": "mapping",
        "key": "t_address",
        "label": "mapping(address => uint256)",
        "numberOfBytes": "32",
        "value": "t_uint256"
      },
      "t_uint256": {
        "encoding": "inplace",
        "label": "uint256",
        "numberOfBytes": "32"
      }
    }
  }
}