{
  "address": "0xC4806b43F410cE6AFe200f1c135F3016d7727031",
  "abi": [
    {
      "inputs": [
        {
          "internalType": "address",
          "name": "priceFeedAddress",
          "type": "address"
        }
      ],
      "stateMutability": "nonpayable",
      "type": "constructor"
    },
    {
      "inputs": [
        {
          "internalType": "address",
          "name": "",
          "type": "address"
        }
      ],
      "name": "addressToAmountFunder",
      "outputs": [
        {
          "internalType": "uint256",
          "name": "",
          "type": "uint256"
        }
      ],
      "stateMutability": "view",
      "type": "function"
    },
    {
      "inputs": [],
      "name": "fund",
      "outputs": [],
      "stateMutability": "payable",
      "type": "function"
    },
    {
      "inputs": [
        {
          "internalType": "uint256",
          "name": "",
          "type": "uint256"
        }
      ],
      "name": "funders",
      "outputs": [
        {
          "internalType": "address",
          "name": "",
          "type": "address"
        }
      ],
      "stateMutability": "view",
      "type": "function"
    },
    {
      "inputs": [],
      "name": "owner",
      "outputs": [
        {
          "internalType": "address",
          "name": "",
          "type": "address"
        }
      ],
      "stateMutability": "view",
      "type": "function"
    },
    {
      "inputs": [],
      "name": "priceFeed",
      "outputs": [
        {
          "internalType": "contract AggregatorV3Interface",
          "name": "",
          "type": "address"
        }
      ],
      "stateMutability": "view",
      "type": "function"
    },
    {
      "inputs": [],
      "name": "withdraw",
      "outputs": [],
      "stateMutability": "nonpayable",
      "type": "function"
    }
  ],
  "transactionHash": "0x7cda8f14551a7a9a3cc49a5ca3e66f9354c8195aa688086665382a776c1a80ad",
  "args": [
    "0x5f4ec3df9cbd43714fe2740f5e3616155c5b8419"
  ],
  "numDeployments": 2,
  "solcInputHash": "9c83a79eed2f136ade19bb0238489e28",
  "bytecode": "0x60806040526802b5e3af16b18800006000553480156200001e57600080fd5b50604051620010c6380380620010c6833981810160405281019062000044919062000137565b33600260006101000a81548173ffffffffffffffffffffffffffffffffffffffff021916908373ffffffffffffffffffffffffffffffffffffffff16021790555080600460006101000a81548173ffffffffffffffffffffffffffffffffffffffff021916908373ffffffffffffffffffffffffffffffffffffffff1602179055505062000169565b600080fd5b600073ffffffffffffffffffffffffffffffffffffffff82169050919050565b6000620000ff82620000d2565b9050919050565b6200011181620000f2565b81146200011d57600080fd5b50565b600081519050620001318162000106565b92915050565b60006020828403121562000150576200014f620000cd565b5b6000620001608482850162000120565b91505092915050565b610f4d80620001796000396000f3fe6080604052600436106100555760003560e01c80633ccfd60b1461005a578063741bef1a146100715780638da5cb5b1461009c578063b60d4288146100c7578063c20089f4146100d1578063dc0d3dff1461010e575b600080fd5b34801561006657600080fd5b5061006f61014b565b005b34801561007d57600080fd5b50610086610458565b604051610093919061081f565b60405180910390f35b3480156100a857600080fd5b506100b161047e565b6040516100be919061085b565b60405180910390f35b6100cf6104a4565b005b3480156100dd57600080fd5b506100f860048036038101906100f391906108a7565b6105c6565b60405161010591906108ed565b60405180910390f35b34801561011a57600080fd5b5061013560048036038101906101309190610934565b6105de565b604051610142919061085b565b60405180910390f35b600260009054906101000a900473ffffffffffffffffffffffffffffffffffffffff1673ffffffffffffffffffffffffffffffffffffffff163373ffffffffffffffffffffffffffffffffffffffff16146101db576040517f08c379a00000000000000000000000000000000000000000000000000000000081526004016101d2906109be565b60405180910390fd5b60005b60018054905081101561028757600060018281548110610201576102006109de565b5b9060005260206000200160009054906101000a900473ffffffffffffffffffffffffffffffffffffffff1690506000600360008373ffffffffffffffffffffffffffffffffffffffff1673ffffffffffffffffffffffffffffffffffffffff1681526020019081526020016000208190555050808061027f90610a3c565b9150506101de565b50600067ffffffffffffffff8111156102a3576102a2610a85565b5b6040519080825280602002602001820160405280156102d15781602001602082028036833780820191505090505b50600190805190602001906102e79291906106f9565b503373ffffffffffffffffffffffffffffffffffffffff166108fc479081150290604051600060405180830381858888f1935050505015801561032e573d6000803e3d6000fd5b5060003373ffffffffffffffffffffffffffffffffffffffff166108fc479081150290604051600060405180830381858888f193505050509050806103a8576040517f08c379a000000000000000000000000000000000000000000000000000000000815260040161039f90610b00565b60405180910390fd5b60003373ffffffffffffffffffffffffffffffffffffffff16476040516103ce90610b51565b60006040518083038185875af1925050503d806000811461040b576040519150601f19603f3d011682016040523d82523d6000602084013e610410565b606091505b5050905080610454576040517f08c379a000000000000000000000000000000000000000000000000000000000815260040161044b90610bb2565b60405180910390fd5b5050565b600460009054906101000a900473ffffffffffffffffffffffffffffffffffffffff1681565b600260009054906101000a900473ffffffffffffffffffffffffffffffffffffffff1681565b6000546104dc600460009054906101000a900473ffffffffffffffffffffffffffffffffffffffff163461061d90919063ffffffff16565b101561051d576040517f08c379a000000000000000000000000000000000000000000000000000000000815260040161051490610c1e565b60405180910390fd5b6001339080600181540180825580915050600190039060005260206000200160009091909190916101000a81548173ffffffffffffffffffffffffffffffffffffffff021916908373ffffffffffffffffffffffffffffffffffffffff16021790555034600360003373ffffffffffffffffffffffffffffffffffffffff1673ffffffffffffffffffffffffffffffffffffffff16815260200190815260200160002081905550565b60036020528060005260406000206000915090505481565b600181815481106105ee57600080fd5b906000526020600020016000915054906101000a900473ffffffffffffffffffffffffffffffffffffffff1681565b60008061062983610659565b90506000670de0b6b3a764000085836106429190610c3e565b61064c9190610cc7565b9050809250505092915050565b6000808273ffffffffffffffffffffffffffffffffffffffff1663feaf968c6040518163ffffffff1660e01b815260040160a06040518083038186803b1580156106a257600080fd5b505afa1580156106b6573d6000803e3d6000fd5b505050506040513d601f19601f820116820180604052508101906106da9190610d85565b5050509150506402540be400816106f19190610e00565b915050919050565b828054828255906000526020600020908101928215610772579160200282015b828111156107715782518260006101000a81548173ffffffffffffffffffffffffffffffffffffffff021916908373ffffffffffffffffffffffffffffffffffffffff16021790555091602001919060010190610719565b5b50905061077f9190610783565b5090565b5b8082111561079c576000816000905550600101610784565b5090565b600073ffffffffffffffffffffffffffffffffffffffff82169050919050565b6000819050919050565b60006107e56107e06107db846107a0565b6107c0565b6107a0565b9050919050565b60006107f7826107ca565b9050919050565b6000610809826107ec565b9050919050565b610819816107fe565b82525050565b60006020820190506108346000830184610810565b92915050565b6000610845826107a0565b9050919050565b6108558161083a565b82525050565b6000602082019050610870600083018461084c565b92915050565b600080fd5b6108848161083a565b811461088f57600080fd5b50565b6000813590506108a18161087b565b92915050565b6000602082840312156108bd576108bc610876565b5b60006108cb84828501610892565b91505092915050565b6000819050919050565b6108e7816108d4565b82525050565b600060208201905061090260008301846108de565b92915050565b610911816108d4565b811461091c57600080fd5b50565b60008135905061092e81610908565b92915050565b60006020828403121561094a57610949610876565b5b60006109588482850161091f565b91505092915050565b600082825260208201905092915050565b7f53454e444552204953204e4f54204f574e455200000000000000000000000000600082015250565b60006109a8601383610961565b91506109b382610972565b602082019050919050565b600060208201905081810360008301526109d78161099b565b9050919050565b7f4e487b7100000000000000000000000000000000000000000000000000000000600052603260045260246000fd5b7f4e487b7100000000000000000000000000000000000000000000000000000000600052601160045260246000fd5b6000610a47826108d4565b91507fffffffffffffffffffffffffffffffffffffffffffffffffffffffffffffffff821415610a7a57610a79610a0d565b5b600182019050919050565b7f4e487b7100000000000000000000000000000000000000000000000000000000600052604160045260246000fd5b7f2053454e44204641494c44000000000000000000000000000000000000000000600082015250565b6000610aea600b83610961565b9150610af582610ab4565b602082019050919050565b60006020820190508181036000830152610b1981610add565b9050919050565b600081905092915050565b50565b6000610b3b600083610b20565b9150610b4682610b2b565b600082019050919050565b6000610b5c82610b2e565b9150819050919050565b7f43414c4c204641494c4400000000000000000000000000000000000000000000600082015250565b6000610b9c600a83610961565b9150610ba782610b66565b602082019050919050565b60006020820190508181036000830152610bcb81610b8f565b9050919050565b7f446f276e6f742073656e6420656e6f7567680000000000000000000000000000600082015250565b6000610c08601283610961565b9150610c1382610bd2565b602082019050919050565b60006020820190508181036000830152610c3781610bfb565b9050919050565b6000610c49826108d4565b9150610c54836108d4565b9250817fffffffffffffffffffffffffffffffffffffffffffffffffffffffffffffffff0483118215151615610c8d57610c8c610a0d565b5b828202905092915050565b7f4e487b7100000000000000000000000000000000000000000000000000000000600052601260045260246000fd5b6000610cd2826108d4565b9150610cdd836108d4565b925082610ced57610cec610c98565b5b828204905092915050565b600069ffffffffffffffffffff82169050919050565b610d1781610cf8565b8114610d2257600080fd5b50565b600081519050610d3481610d0e565b92915050565b6000819050919050565b610d4d81610d3a565b8114610d5857600080fd5b50565b600081519050610d6a81610d44565b92915050565b600081519050610d7f81610908565b92915050565b600080600080600060a08688031215610da157610da0610876565b5b6000610daf88828901610d25565b9550506020610dc088828901610d5b565b9450506040610dd188828901610d70565b9350506060610de288828901610d70565b9250506080610df388828901610d25565b9150509295509295909350565b6000610e0b82610d3a565b9150610e1683610d3a565b9250827f7fffffffffffffffffffffffffffffffffffffffffffffffffffffffffffffff0482116000841360008413161615610e5557610e54610a0d565b5b817f80000000000000000000000000000000000000000000000000000000000000000583126000841260008413161615610e9257610e91610a0d565b5b827f80000000000000000000000000000000000000000000000000000000000000000582126000841360008412161615610ecf57610ece610a0d565b5b827f7fffffffffffffffffffffffffffffffffffffffffffffffffffffffffffffff0582126000841260008412161615610f0c57610f0b610a0d565b5b82820290509291505056fea26469706673582212202c681d798819c298f719e468fb9913b28cc5dcdf63433685859a723bae07df0b64736f6c63430008080033",
  "devdoc": {
    "kind": "dev",
    "methods": {},
    "version": 1
  },
  "userdoc": {
    "kind": "user",
    "methods": {},
    "version": 1
  },
  "storageLayout": {
    "storage": [
      {
        "astId": 56,
        "contract": "contracts/fund-me.sol:FundMe",
        "label": "minimumUSD",
        "offset": 0,
        "slot": "0",
        "type": "t_uint256"
      },
      {
        "astId": 59,
        "contract": "contracts/fund-me.sol:FundMe",
        "label": "funders",
        "offset": 0,
        "slot": "1",
        "type": "t_array(t_address)dyn_storage"
      },
      {
        "astId": 61,
        "contract": "contracts/fund-me.sol:FundMe",
        "label": "owner",
        "offset": 0,
        "slot": "2",
        "type": "t_address"
      },
      {
        "astId": 65,
        "contract": "contracts/fund-me.sol:FundMe",
        "label": "addressToAmountFunder",
        "offset": 0,
        "slot": "3",
        "type": "t_mapping(t_address,t_uint256)"
      },
      {
        "astId": 68,
        "contract": "contracts/fund-me.sol:FundMe",
        "label": "priceFeed",
        "offset": 0,
        "slot": "4",
        "type": "t_contract(AggregatorV3Interface)45"
      }
    ],
    "types": {
      "t_address": {
        "encoding": "inplace",
        "label": "address",
        "numberOfBytes": "20"
      },
      "t_array(t_address)dyn_storage": {
        "base": "t_address",
        "encoding": "dynamic_array",
        "label": "address[]",
        "numberOfBytes": "32"
      },
      "t_contract(AggregatorV3Interface)45": {
        "encoding": "inplace",
        "label": "contract AggregatorV3Interface",
        "numberOfBytes": "20"
      },
      "t_mapping(t_address,t_uint256)": {
        "encoding": "mapping",
        "key": "t_address",
        "label": "mapping(address => uint256)",
        "numberOfBytes": "32",
        "value": "t_uint256"
      },
      "t_uint256": {
        "encoding": "inplace",
        "label": "uint256",
        "numberOfBytes": "32"
      }
    }
  }
}